:020000040000FA
:10000000200B0020D5000000F5000000F7000000E4
:1000100000000000000000000000000000000000E0
:10002000000000000000000000000000F9000000D7
:100030000000000000000000FB000000E50D0000D3
:10004000FF000000FF000000FF000000FF000000B4
:10005000FF000000FF000000FF000000FF000000A4
:10006000FF000000710F0000CD0F0000FF00000036
:10007000511000007D100000FF000000FF00000094
:10008000FF000000FF000000FF000000E506000088
:10009000FF000000FF000000FF000000FF00000064
:1000A000FF000000FF000000FF000000FF00000054
:1000B000FF000000FF000000FF000000FF00000044
:1000C0000348854600F00EF9004800479D270000D0
:1000D000200B00200A480B4901600B4901600B49C5
:1000E00001600B4A0B491160002101600A488047FA
:1000F0000A480047FEE7FEE7FEE7FEE7FEE7FEE709
:1001000000010050590000001600000088000000A7
:1001100024000050A55A00005D0E0000C100000040
:1001200030B50B46014600202022012409E00D468F
:10013000D5409D4205D31D469540491B2546954017
:1001400040191546521E002DF1DC30BD03460B430D
:100150009B070AD102E008C9121F08C0042AFAD27C
:1001600003E00B780370491C401C521EF9D2704703
:1001700030B50EE003460A4601E05B1C521C1C78B9
:100180001578AC4201D1002CF7D11278002A04D0A6
:10019000401C0278002AEDD1002030BD70B5024627
:1001A0004A40D50F40004A00ED0740085208002899
:1001B00016D0002A14D041000C0E51000B0E410243
:1001C0000120C0055202490A520AE41A09181218FD
:1001D0007D34914201D3641C00E04900002C01DA17
:1001E000002070BD0023914201D3891A03434008C7
:1001F00049000028F7D100290AD0914202D10121FB
:10020000C90705E0914201D2012101E00121C94362
:10021000E005C018401900F022F870BD10B50022AA
:100220001146962300F023F810BDC20F400040088D
:10023000C10D40020123400ADB05D207C0187F2907
:1002400001DA00207047962903DC9623591AC8402A
:1002500001E096398840002AF4D0404270470029D6
:1002600004DA401C490001D140084000704770B4D6
:100270000024050C05D11024000402D1002922D04D
:100280001124050E01D108340002050F01D1241DEF
:100290000001850F01D1A41C8000002801DB641C33
:1002A0004000002908D020252E1B0D46F540A14016
:1002B00000D001210D4328431B1B0106DB1D000A52
:1002C000002B02DA002070BC7047DB05181880187C
:1002D0000029F8DA401C4900F5D170BC4008400004
:1002E00070470000064C0125064E05E02046E368F5
:1002F00007C82B4398471034B442F7D3FFF7E4FE06
:10030000F03200001033000070B58C180578401CE6
:100310006B075B0F01D10378401C2A1106D10278CC
:10032000401C03E006780E70401C491C5B1EF9D18E
:100330002B0706D4002301E00B70491C521EFBD58D
:100340000AE00378401CCB1A921C03E01D780D7064
:100350005B1C491C521EF9D5A142D7D3002070BDA9
:10036000064AC10F89005258C306DB0E012199408D
:100370000A43024BC10F89005A50704708020050CF
:10038000FEB50020029019A0006800901848046A89
:100390000013044201D00020FEBD0120C00404422D
:1003A00001D0144D00E0144D01204004044201D05E
:1003B0002846F1E7032080032040800B69460A5C51
:1003C0000192E005C00D861C1F2040022040400A1B
:1003D000871C019A7A431146AA0872431046FFF718
:1003E0009FFE800002900298D6E7000001020204FE
:1003F0000002005000805101001BB700FEB5002034
:10040000029019A0006800901848046A0013044282
:1004100001D00020FEBD0120C004044201D0144DD3
:1004200000E0144D01204004044201D02846F1E7C9
:10043000032080032040800B69460A5C0192E0059E
:10044000C00D861C1F2040022040400A871C019AD4
:100450007A431146AA0872431046FFF761FE8000F6
:1004600002900298D6E70000010202040002005048
:1004700000805101001BB700F0B5002300240025C7
:10048000C600360F0FD0124E4700BF0FBF00F41941
:100490002368C600360FC701FF0EBE401F46B74394
:1004A0000F433B4623608603360E10D0084E0836B5
:1004B0000703BF0FBF00F5192B688603360EF643FE
:1004C0008705FF0EBE401E40164333462B60F0BD2D
:1004D00010020050064904E00A46491E002A00DCCA
:1004E00004E0044AD26802408242F5D100BF70475E
:1004F00090D003000002005000B500F087FA0349D5
:10050000086008460068091D086000BD78010020E9
:1005100010B5002208210F4800F066F801220221E0
:100520000C4800F061F800F071FA0B4908600B48C4
:1005300000F016F800F06AFA07490860074800F072
:100540000FF800F063FA0449086008460068091DC6
:10055000086010BD004000507801002040420F00AC
:10056000094909687D22D2005143084A516100219E
:1005700091610521116100BF04490969012212043A
:100580001142F9D0704700000C01002000E000E0AB
:1005900072B6704762B67047034800684008400072
:1005A000014908607047000000C00050034800681F
:1005B00001210843014908607047000000C0005055
:1005C00001460420074AD060880050600120106175
:1005D000BFF36F8F00BF034800690028FBD10148BB
:1005E0008068704700C0005070B500230EE0012401
:1005F0009C400C4209D004685E000325B540AC4322
:100600005E001546B5402C4304605B1C082BEED3FE
:1006100070BD000008B5002000900022E0211748BE
:10062000FFF7E2FF0022102114488030FFF7DCFFC3
:10063000134840696B46187011488069587010481B
:10064000C06998700E4840300069D87018781870EA
:1006500058784006000E587098788006000E987002
:10066000D878C006000ED870187859784018997854
:100670004018D9784018C0B208BD00008040005032
:100680004042005010B5012213211448FFF7ACFF7F
:1006900001220F2111484038FFF7A6FF0122042153
:1006A0000E48C030FFF7A0FF00200D4908624862E5
:1006B0000863086048608860C860094980318860C4
:1006C00003221C2105484030FFF78EFF0322012141
:1006D0000248C030FFF788FF10BD000040400050C6
:1006E0000042005010B50B48C4684069C007C00FF5
:1006F00001214840484003D0064800F00FF807E0C9
:1007000005480068002803D0204603490968884747
:1007100010BD00000000124040010020416901228C
:10072000114341617047000000B50F4800680F4950
:100730000968401A322807D30B4800680B49086043
:1007400000F060F800F018F809480069094988824B
:10075000074840300068C8820548C06808830448DC
:100760008068488300BD00002C0100201801002093
:10077000404200509C01002020480078C007C00F74
:100780000AD01F480088002803D000201C49088098
:1007900002E001201A490880184800780221084226
:1007A0000AD017484088002803D000201449488008
:1007B00002E00120124948801048007804210842D4
:1007C0000AD00F488088002803D000200C49888078
:1007D00002E001200A498880084800780821084280
:1007E0000AD00748C088002803D000200449C880E8
:1007F00002E001200249C880704700001C0100206F
:100800009C010020002019490969002903D1FE211B
:10081000174A11701BE0154940310968002903D1BE
:10082000FD21134A117012E01049C968002903D153
:10083000FB210F4A11700AE00C498968002903D195
:10084000F7210B4A117002E0FF21094A1170084993
:100850000978FF2251400846064909784140014085
:10086000054A11700349087070470000404200506B
:10087000140100201D0100201C010020C206D20E20
:1008800001219140014A11607047000000E100E041
:10089000C206D20E01219140014A1160704700004A
:1008A00000E100E010B5002819DA1A4A03071B0F0F
:1008B000083B9B089B00D2588307DC0EFF23A34014
:1008C0009A438B071B0E8407E40EA3401A43114B77
:1008D0000407240F083CA408A4001A5118E00E4A8B
:1008E00003231B02D21883089B00D3588207D40E1F
:1008F000FF22A24093438A07120E8407E40EA2400F
:100900001343054A0324240212198408A400135136
:1009100010BD00001CED00E000E100E010B5002873
:1009200019DA1A4A03071B0F083B9B089B00D25891
:100930008307DC0EFF23A3409A438B071B0E84071B
:10094000E40EA3401A43114B0407240F083CA408EB
:10095000A4001A5118E00E4A03231B02D218830880
:100960009B00D3588207D40EFF22A24093438A07EC
:10097000120E8407E40EA2401343054A0324240206
:1009800012198408A400135110BD00001CED00E0F2
:1009900000E100E010B5002819DA1A4A03071B0F1E
:1009A000083B9B089B00D2588307DC0EFF23A34023
:1009B0009A438B071B0E8407E40EA3401A43114B86
:1009C0000407240F083CA408A4001A5118E00E4A9A
:1009D00003231B02D21883089B00D3588207D40E2E
:1009E000FF22A24093438A07120E8407E40EA2401E
:1009F0001343054A0324240212198408A400135146
:100A000010BD00001CED00E000E100E000B500209A
:100A100015494860002200F077FF00BF1248C06807
:100A20000028FBD1002311E000F06EFF01200E49E9
:100A30004860520000F068FF00200B4948600846FB
:100A4000C068002800D0521C581CC3B2182BEBDB26
:100A5000012005494860C005424000F055FF0020D4
:100A600001494860104600BD0042005000B50346F1
:100A700000F018FF180D1C2B3A4B5A6978878889AB
:100A80008A8B8C8D8E8F9091929394959697012955
:100A900004D100BF0122444B1A6206E0022904D1AE
:100AA00000BF0022404B1A6200BF7AE0012904D146
:100AB00000BF01223C4B5A6206E0022904D100BF6C
:100AC0000022394B5A6200BF6BE0012904D100BFFC
:100AD0000122354B1A6306E0022904D100BF00222F
:100AE000314B1A6300BF5CE0012905D100BF012230
:100AF0002D4B80339A6007E0022905D100BF002208
:100B0000294B80339A6000BF4BE0012904D100BF1C
:100B10000122254BDA6006E0022904D100BF002241
:100B2000214BDA6000BF3CE0012904D100BF012263
:100B30001D4B9A6006E0022904D100BF00221A4B27
:100B40009A6000BF2DE0012904D100BF0122164B9D
:100B50005A6006E0022904D100BF0022124B5A60FD
:100B600000BF1EE0012904D100BF01220E4B1A6014
:100B700006E0022904D100BF00220B4B1A6000BF1F
:100B80000FE00EE00DE00CE00BE00AE009E008E009
:100B900007E006E005E004E003E002E001E000E039
:100BA00000BF00BF00BD00000042005010B500248F
:100BB00028E060001549085A6100154A505260004B
:100BC0001146085A6100134A515A884218D06000F1
:100BD0000F49085A002804D102212046FFF746FF9A
:100BE00008E060000A49085A012803D10121204683
:100BF000FFF73CFF60000649085A6100054A505261
:100C0000601CC4B2082CD4DB10BD00009C01002085
:100C1000EC050020DC05002010B516480068042112
:100C20000843144908601020FFF754FC07201149BD
:100C300008610846006AC90108430E49086208466F
:100C40000068012108430B4908600B480862052031
:100C5000FFF740FC1A2007490861084888600848E7
:100C6000486100F0C9F8032005210907C863800224
:100C7000486310BD00020050174200001800030036
:100C8000002002010A49020E92008A580121814087
:100C90000A430749030E9B00CA50020E92008A586D
:100CA000012181408A430249030E9B00CA507047CC
:100CB0000800005000B587B0FF206B461871AA20CD
:100CC000587101209871D87140480068000E3F4962
:100CD0000968090C401818723C4800680004000EAE
:100CE00058723A48006898720220D87288201873A7
:100CF000587300209873D873187488205874002093
:100D00009874D8741875AA205875FF2098752420F7
:100D1000D8750D2018760A2058762D4800682D4980
:100D20000860002001F024FE2B480068000E6B468E
:100D30005874294800680002000E9874264800681C
:100D40000004000ED8742448006818752348007801
:100D5000002834D0002021490870FF201871AA20F3
:100D6000587101209871D87118480068000E174911
:100D70000968090C40181872144800680004000E35
:100D800058721248006898720120D87200201873B7
:100D90002620587300209873D87318745874AA20AA
:100DA0009874FF20D874242018750D2058750A20D7
:100DB0009875132201A90A4800F0CEF904E0162222
:100DC00001A9074800F0C8F907B000BD08000020DD
:100DD0002C01002080010020600100207001002013
:100DE00000001540034800687D21C90040180149F2
:100DF000086070470000002070B512480069450780
:100E00006D0FFFF7FBFA10490860022D03D0A80010
:100E10000E490C5801E00C4804680A488069000734
:100E2000000F461C31462046FFF77AF90849086052
:100E30000849074800684A108018FFF771F9064909
:100E4000086070BD0002005010010020D032000088
:100E50000801002040420F000C010020704701688B
:100E600001225207114301607047000030B589B07C
:100E700004462022194901A8FFF768F9184884425E
:100E800006D118484069072109020840050A1AE0FE
:100E900013482030844206D11248406907210903D3
:100EA0000840050B0FE01048844206D10D48406908
:100EB000072109040840050C05E00A48406907219C
:100EC00009050840050D022D03D10848006809B046
:100ED00030BDA80001A90858F9E7000080320000E1
:100EE00000000140000200500000114008010020F5
:100EF000F7B582B004460D462046FFF7B7FF064619
:100F000000270020019070080499884201D202272E
:100F10001BE001208006864203D307200190F608DB
:100F20000EE001204006864203D303200190B6085C
:100F300006E001200006864202D3012001907608D7
:100F400030460499FFF7ECF80746019828432060E3
:100F500067600198401C784301463046FFF7E0F88F
:100F600005B0F0BD0168012292071143016070478E
:100F700010B500BF11488068C007C00F01281BD101
:100F800000BF0E49886000BF0D480078002810D0CF
:100F90000C480068401C0B490860084600680A4974
:100FA0000988884208DB01F0CBFC00200549086075
:100FB00002E000200349086010BD0000200001404D
:100FC00010000020140000201800002000B500BF11
:100FD00019488068C007C00F01282CD100BF1649EE
:100FE000886000BF15480068401C14490860084626
:100FF0000068142806D30020086011480068401CCF
:101000000F4908600F480078002811D00E4800688A
:10101000401C0D490860084600680849091D0988F8
:10102000884208DB01200949087001F079FD02E0DF
:1010300000200549086000BD000011403401002077
:101040002C0100202501002028010020240100207F
:1010500010B50948C069C007C00F02D001F078FC84
:1010600008E005488069012109070840000F01D008
:1010700001F076FC10BD00000000054000B50E48F0
:10108000C069C007C00F13D00C480068192149017E
:1010900088420AD20A49094A1268881801F00AFDF2
:1010A00006480068401C0549086001F043FD01E066
:1010B0000148806900BD00000000154020010020AB
:1010C000FC050020F0B585B004460D461E4801AF72
:1010D0004EC84EC7002000901C48406903210906F5
:1010E0000840060E002020630320E060A068184935
:1010F0000840A060012E04D1FFF742F9B10001AA17
:101100005050002D1ED0B10001AA51586A0888180D
:101110002946FFF705F8801E00900E490098884286
:101120000BD9B10001AA5158EA0088182946FEF7E8
:10113000F7FF0009801E606204E0032109070098A0
:101140000843606205B0F0BDA0320000000200500C
:101150000FFFF0FFFFFF000070B50346002510E011
:10116000002406E0641C01208007844201D3002093
:1011700070BD9869012636073042F3D0485D18608B
:101180006D1C9542ECD12846F2E710B500F0EEF860
:1011900010BD000010B50446200C0849C8850C8617
:1011A0000748006848860846808E012804D1FFF76A
:1011B000A3F902200149888610BD00009C0100208F
:1011C0005C01002010B540480078052846D008DCB6
:1011D00001280FD002281AD0032825D0042871D165
:1011E0002FE0062847D0072852D008285DD0FF28D6
:1011F00068D167E035480078012807D1112234A171
:101200003848FFF7A9FF0020304908705AE02F48FE
:101210000078012807D1282233A13248FFF79CFF2C
:1012200000202A4908704DE028480078012807D19D
:101230000E2238A12B48FFF78FFF002023490870AA
:1012400040E022480078012807D10C2235A125482A
:10125000FFF782FF00201D49087033E01B4800782B
:10126000012807D10C2233A11E48FFF775FF00208B
:101270001649087026E015480078012807D1112288
:1012800013A11848FFF768FF00201049087019E003
:101290000E480078012807D111222AA11148FFF732
:1012A0005BFF0020094908700CE00848007801281D
:1012B00007D1132228A10B48FFF74EFF0020034956
:1012C000087000BF00BF10BD680100206A01002047
:1012D00041542B43574D4F44455F4445463D310DE6
:1012E0000A0000000000154041542B43495053545C
:1012F0004152543D22544350222C2234372E39334C
:101300002E3138382E323436222C353637390D0A04
:101310000000000041542B4349504D4F44453D319E
:101320000D0A000041542B43495053454E440D0AC9
:101330000000000041542B524553544F52450D0AB2
:101340000000000041542B43574155544F434F4E2A
:101350004E3D310D0A00000041542B435753544178
:101360005254534D4152543D330D0A0010B5FFF70E
:10137000CFF80822E12149020020034601F0A2FB38
:10138000062001F0E3FB00200C49087001200C4905
:10139000087000200B49087001200B4908700020DC
:1013A0000A4908600A4908700A4988630A48FFF731
:1013B000D7F801200749886310BD000069010020AB
:1013C00068010020700100206A01002084010020D3
:1013D0007101002000420050A086010010B50446B3
:1013E00023480068234988872148006800281AD1CB
:1013F0004B20C0001E49086000201F4908700120D2
:101400001E49087000201E49087001201D490870FF
:1014100000201D4908601D4988631D48FFF7A0F89A
:1014200001201A4988631548007812490887084640
:10143000C08E012815D100200F49087058200D4991
:10144000C886144800681449086005200B490870D4
:1014500000200E4988630E48FFF782F801200B49EF
:101460008863204600F056F900F018F810BD00001F
:10147000740100209C010020690100206801002007
:10148000700100206A010020840100200042005009
:10149000A08601002C0100208801002010B56A48B8
:1014A0000078002873D069480078052848D008DC07
:1014B00001280FD002281AD0032825D0042874D17F
:1014C0002FE0062849D0072854D0082860D0FF28EC
:1014D0006BD16AE05EA15F48FEF74AFE002805D0A6
:1014E00002205A49087001205B4908705DE05BA149
:1014F0005848FEF73DFE002805D0032053490870E8
:1015000001205549087050E057A15248FEF730FEBF
:10151000002805D004204D49087001204E4908706C
:1015200043E054A14B48FEF723FE002807D0FF20DC
:10153000464908700120484908705149087034E054
:1015400050A14448FEF714FE002805D006203F496C
:10155000087001204049087027E04DA13D48FEF782
:1015600007FE002805D007203849087001203A49B5
:1015700008701AE04AA13748FEF7FAFD002805D0A6
:101580000820324908700120334908700DE05AE004
:1015900047A13048FEF7ECFD002805D0FF202B497D
:1015A000087001202C49087000BF00BF45A12948E0
:1015B000FEF7DEFD002803D04B20C0004349086041
:1015C00043A12448FEF7D4FD00281BD04B20C000C7
:1015D0003E49086000202A49087001201B49087014
:1015E00000203D49087001201B49087000203B493C
:1015F00008603B4988633B48FEF7B2FF0120384949
:10160000886316E038A11348FEF7B2FD002807D022
:101610004B20C0002D49086001202F49087008E0C8
:1016200033A10C48FEF7A4FD002802D00120374961
:101630000870802200210748FEF788FD0020344909
:1016400008600149087010BD2401002068010020D5
:101650004F4B0000FC0500206A01002041542B4341
:10166000495053544152540041542B4349504D4F1B
:101670004445000041542B43495053454E4400001B
:101680006901002041542B524553544F52450000EC
:1016900041542B43574D4F44455F4445463D31002F
:1016A00041542B43574155544F434F4E4E3D31000B
:1016B00041542B43575354415254534D4152543D7E
:1016C00033000000726563766F6B000074010020C8
:1016D0004552524F5200000070010020840100204A
:1016E00000420050A0860100676574696400000034
:1016F000736D617274636F6E66696720636F6E6E7F
:101700006563746564207769666900007101002073
:101710002001002010B504465248007800280BD163
:101720005148006851490968401A5149884227D3F5
:101730005048C08E582823D14A480078002803D04A
:1017400037204C49C88602E021204A49C88600203B
:10175000494908700120494908700020484908702B
:101760000120484908700020474908603D49087039
:10177000464988634648FEF7F3FE012043498863E3
:1017800040480078002808D13F480068002804D16C
:10179000354800683C49086006E03A48007801286E
:1017A00002D10020384908603748006800282CD052
:1017B0002D48006834490968401A3649884224D3C4
:1017C0002C48C08E582809D105202C4908700120CA
:1017D0002C49087000202C49086016E0002026499A
:1017E0000870012025490870002025490870012053
:1017F000244908700020244908602449886324484B
:10180000FEF7AEFE0120214988631B4800780028BE
:101810000ED11548006820490968401A1F498842BE
:101820001ED3114800681C490860FFF7CBFC17E085
:101830000D48006818490968401A7D21C90088428E
:101840000ED3FFF737FA16480068002808DD09486C
:10185000408F002804D112480068401E10490860DB
:1018600010BD0000710100202C0100208801002023
:10187000C0D401009C010020690100206801002003
:10188000700100206A010020840100200042005005
:10189000A0860100102700008001002088130000AE
:1018A0007401002030B47446641E2578641CAB4279
:1018B00000D21D46635D5B00E31830BC184702E0B0
:1018C00008C8121F08C1002AFAD1704770470020CB
:1018D00001E001C1121F002AFBD1704710B502467A
:1018E000002009E01478521C03125C406300054C90
:1018F000E35A0402634098B20B464C1EA1B2002B7F
:10190000F0DC10BD7E300000142000E0401E0028F6
:10191000FCD17047F8B504460D460026207804280F
:101920003FD16078022806D0042812D005281AD0AA
:1019300006282DD122E008202070022060700020AF
:10194000A0708920E070002020716071062028803E
:101950001EE006202070042060700020A070E0705F
:101960000420288014E006202070052060700320E9
:10197000A070E820E0700420288009E00620207094
:1019800060705520A070F020E0700420288000BF17
:1019900000BF0027002F05D0384600F0BFFF0646E5
:1019A00000E003263046F8BD10B500240748007853
:1019B000012807D10548943000688047002003497A
:1019C000087000E00624204610BD000050000020F2
:1019D000F0B585B004460D46002001902888052802
:1019E00050D160780602A0780643701C86B2E07879
:1019F000000203902079039908430390039801287B
:101A00003DDB7D2109010398884238DA02940020E9
:101A100028800120029C2070029C601C0290288873
:101A2000401C288003984007400F07D00398C11737
:101A3000490F0918C910491CCFB205E00398C11716
:101A4000490F091849050F0E029807700298401CAB
:101A500002902888401C288031460023039A02986F
:101A600000F092FC00900098002804D0009800F04C
:101A700055FF019008E02888C019288004E0032061
:101A8000019001E003200190019805B0F0BDF0B590
:101A900085B004460D4600200190288805284FD1C6
:101AA00060780602A0780643701C86B2E0780002D7
:101AB00003902079039908430390039801283CDBA5
:101AC0007D2109010398884237DA0294002028809A
:101AD0000220029C2070029C601C02902888401CFE
:101AE000288003984007400F07D00398C117490F7B
:101AF0000918C910491CCFB205E00398C117490F56
:101B0000091849050F0E029807700298401C0290B0
:101B10002888401C28803146039A029800F0E2FC95
:101B200000900098002804D0009800F0F7FE019083
:101B300008E02888C019288004E00320019001E013
:101B400003200190019805B0F0BDFEB504460D4696
:101B5000002001902888052839D160780602A078F5
:101B60000643701C86B2E07807022779012F2BDB31
:101B70007D2F29DC0294002028800320029C207005
:101B8000029C601C02902888401C28807806000E69
:101B9000029908700298401C02902888401C2880F6
:101BA0003A4631460023029800F044FD0090009828
:101BB000002804D0009800F0B1FE019009E02888C8
:101BC00079004018288004E00320019001E0032000
:101BD00001900198FEBDFEB504460D46002001901F
:101BE0002888052839D160780602A0780643701C41
:101BF00086B2E078070220790743012F2ADB7D2F88
:101C000028DA0294002028800420029C2070029C84
:101C1000601C02902888401C28807806010E0298DB
:101C200001700298401C02902888401C28803A4687
:101C30003146029800F05EFD00900098002804D024
:101C4000009800F06BFE019009E0288879004018A8
:101C5000288004E00320019001E003200190019816
:101C6000FEBDF0B587B004460D46002001902888DF
:101C70000A2868DB607800020690A078069908437D
:101C800006900698401C80B20690E078000205900D
:101C90002079059908430590607900020490A079A5
:101CA0000499084304900498401C80B20490E079A1
:101CB00000020390207A039908430390607A02900F
:101CC000059801283DDB05987D283ADC039801281A
:101CD00037DB0398792834DC039840000299884266
:101CE0002FD120460A300123039A049900F0A2FC68
:101CF0000746002F1ED12646288017203070344614
:101D0000761C2888401C288005984006000E3070FC
:101D1000761C2888401C288030460023059A0699A6
:101D200000F088FC0746002F04D128880599490057
:101D300040182880002F06D0384600F0EFFD0190B3
:101D400001E003200190019807B0F0BD70B5044692
:101D50000D46064802880649601CFEF7F7F903485D
:101D60000088401C2880002070BD00004C0000202E
:101D7000BC050020FEB504460D46002000902888D2
:101D800005282BD160780602A0780643701C86B225
:101D9000207900281FD1E078FF2802D0E0780028C1
:101DA00019D100206B465871E078FF2802D101203C
:101DB000187102E000206B4618710122314601A81B
:101DC000134600F0E1FA0746002F09D0384600F02C
:101DD000A5FD009004E00320009001E003200090A6
:101DE0000098FEBDF8B504460D46002000902888F6
:101DF000052813D160780602A0780643701C86B2CD
:101E000001223146E01C134600F014FC0746002F67
:101E100006D0384600F082FD009001E003200090DB
:101E20000098F8BDF0B585B004460D46002001903D
:101E3000288805283DDD60780602A0780643701CDE
:101E400086B2E0780702207907436079039078072B
:101E5000400F08D03846F917490FC919C910491C55
:101E6000C9B2029106E03846F917490FC919490568
:101E7000090E0291012F19DB7B200001874215DC3E
:101E800003990298884211D13A463146A01D012398
:101E900000F07AFA00900098002804D0009800F032
:101EA0003DFD019007E00520288004E0032001901B
:101EB00001E003200190019805B0F0BDFEB5044695
:101EC0000D46002001902888062829DB607806024C
:101ED000A0780643701C86B2E07807022079074399
:101EE00060790290012F18DB782F16DC7806000E3F
:101EF0000299884211D13A463146A01D012300F0D3
:101F000099FB00900098002804D0009800F006FD8E
:101F1000019007E00520288004E00320019001E003
:101F2000032001900198FEBDFFB581B004460D4627
:101F300016460A9F00200090FF2D03D0002D01DBE4
:101F4000FE2D02DD022000903AE01F480570002CB3
:101F500021D11E481C49C91D08601D48091D086083
:101F60001C48083908601C480C3108600020091D15
:101F700008601A481A4908601A481B4908601B483B
:101F80001B4908603B4631460F480078049A00F030
:101F900039F9009002E00220009000BF00BF0098D5
:101FA00000280DD100F014FE002802D1032000907B
:101FB00006E00548401C0470012003498D39087073
:101FC000009805B0F0BD0000DD0000204D230000AA
:101FD00071230000C522000059220000BD2C000022
:101FE000F4000020912D0000F80000204D2D00008D
:101FF000FC00002038B5002581480078002801D079
:10200000062038BD684600F0D1FD01287ED16B4620
:102010001B78FFF747FC0504058EF02EF100EBE07E
:10202000774A8A32911F081D034614331B6898476C
:102030000546002D0FD172488830007870498D31E7
:102040000978884204D06E4888300078FF2802D191
:10205000022000F0C5FD082D0AD1694888300078BB
:1020600067498D310978884202D1042000F0B8FD1B
:10207000C2E06348843000680078614989310870A3
:102080000120C91C087000241CE0E0005C49091D07
:10209000085C002800D117E0E0005949091D085CE0
:1020A0008531097888420CD1E0005549091D401856
:1020B00086314268881F0068904751498C3108700A
:1020C00002E0641C102CE0DB00BF4D488830007833
:1020D000FF282DD04A488C30007800281ED00020E0
:1020E00047498A310880481E0178802001434448CE
:1020F0008A3002880088401C414B8A331880981F20
:1021000000688154981C0278801E00E075E0018808
:102110000088401C1880981F0068425438488A3054
:102120000288801F01680930007800F087FBC5B283
:1021300062E03348843000680078314989310870A2
:102140000120C91C087000241CE0E0002C49091D76
:10215000085C002800D117E0E0002949091D085C4F
:102160008531097888420CD1E0002549091D4018C5
:1021700086314268881F0068904721498C31087079
:1021800002E0641C102CE0DB00BF1D4888300078A2
:10219000FF282ED01A488C30007800281DD000204F
:1021A00017498A310880481E01788020014314486D
:1021B0008A3002880088401C114B8A331880981F8F
:1021C00000688154981C0178801E02880088401C99
:1021D0001880981F006881540EE009488A300288F0
:1021E000801F016809300078054B90331B689847C1
:1021F000054601E0FFE700BF00BF002001E7000047
:1022000050000020F8B50C4615461E460027FEF784
:10221000BFF9334608222946204600F0F3FC012886
:1022200001D0032712E04B200002854202D923206F
:10223000009004E069000748FDF772FF00900099E4
:1022400088B200F01BFD012800D00327FEF7A2F999
:102250003846F8BDA07F1700F8B504460D4616466F
:102260000027FEF795F915480088042811DB13486C
:102270000188134800F0B4FB00280AD11048007808
:1022800020700E480088C01E30800D48401C286019
:102290000FE00A48008804280ADB0948007920700A
:1022A0000648008830800648801D2860082700E026
:1022B0000527FEF76FF93846F8BD00004A000020F8
:1022C000BC040020F8B504460D46164600200090D8
:1022D000FEF75EF91B48007801282DD1681E1949C8
:1022E000C91C08600120091D0880081F00680470CF
:1022F000084600888019088008460188001F006889
:1023000000F06EFB07460F4AD21D1088421C0D4B91
:10231000DB1D1A800C4A175439121A461088421CC9
:102320001A80094A11540120194608390870012100
:10233000002000F06FFB01E005200090FEF72AF975
:102340000098F8BD41000020BC04002010B5FEF745
:102350001FF90020054908700021012000F05AFBF8
:1023600000F090FBFEF716F910BD000041000020C0
:1023700010B5FEF70DF90021084600F04BFB00F008
:102380006BFBFEF707F910BDFFB589B004460D469B
:102390001646002008903046F117490F8919C910D8
:1023A000491C069100F000FC00280FD000F016FB3D
:1023B00048494018059001200490082003904648A1
:1023C0000088C0B2029001200C9009E043480590BB
:1023D000012004900820039041480088C0B2029078
:1023E0000498854271DBA819039A049989188842D8
:1023F0006BDC0299681AC117490F0918CF100299AE
:10240000681AC117490F0918C910C900411A079164
:102410000C98002802D0012855D126E00EE007993B
:102420008BB239467F1C059A88180822194600F09D
:10243000E7FC2070641C0698401E06900698002851
:10244000EDDC641E3046F117490F8919C910C90027
:10245000711A8EB220780821891B8840207020785C
:102460000821891B084120702DE010E02378641CAE
:10247000079880B2009038467F1C059940180822C2
:102480000190009900F0D3FC0698401E0690069833
:102490000128EBDC3046F117490F8919C910C90032
:1024A000711A8EB2002E0DD02378641CF2B20798F8
:1024B00080B2009038467F1C059940180190009921
:1024C00000F0B5FC00BF02E0FFE70120089008988B
:1024D0000DB0F0BDAC020020260000203D00002021
:1024E0001E000020F0B589B004460F4615460020B6
:1024F00008902846E917490F4919C910491C059148
:1025000000F052FB00280CD000F068FA454946184C
:10251000012004900820039043480088C0B2029034
:1025200008E0424E012004900820039040480088B3
:10253000C0B20290049887426EDB7819039A04991E
:102540008918884268DC0299781AC117490F09185E
:10255000C91007910299781AC117490F0918C910B3
:10256000C900411A069100F01FFB00282DD010E091
:102570002378641C069880B200900798411C80194B
:10258000082207910190009900F051FC0598401E27
:10259000059005980128EBDC2846E917490F4919F1
:1025A000C910C900691A8DB2002D37D02378641C78
:1025B000EAB2069880B200900798411C80190791F2
:1025C0000190009900F033FC28E00EE006998BB2F0
:1025D00007994A1C881907920822194600F010FC36
:1025E0002070641C0598401E059005980028EDDCBD
:1025F000641E2846E917490F4919C910C900691A0C
:102600008DB220780821491B88402070207808214D
:10261000491B0841207001E001200890089809B08A
:10262000F0BD00009C020020240000203C0000209F
:102630001C000020FFB583B004460020029000F08B
:10264000B3FA00280ED000F0C9F90001254FC519D2
:1026500001260820019024480088C0B20090012083
:10266000069007E0214D0126802001902048008837
:10267000C0B20090B14230DB8818019FF719B84210
:102680002BDC00980B1A0698002802D0012823D1D1
:102690000FE00BE05800285A00122070641C58000C
:1026A000285A2070641C5B1C501E82B2002AF1DC88
:1026B00012E00EE02078641C00025F00E8532078EE
:1026C000641C5F00EF5B38435F00E8535B1C501EE7
:1026D00082B2002AEEDC00BF01E0012002900298E5
:1026E00007B0F0BDBC0300202A0000209C010020A0
:1026F00022000020FEB503460020029000F054FAAC
:1027000000280CD000F06AF90001204FC5190126FD
:10271000082001901E480088C0B2009007E01D4DBF
:102720000126082001901C480088C0B20090B142E8
:1027300027DB8818019FF719B84222DC00980C1A91
:102740001CE000F031FA00280CD018785B1C000265
:102750006700E85318785B1C6700EF5B384367003D
:10276000E85308E06000285A001218705B1C6000F3
:10277000285A18705B1C641C501E82B2002AE0DCD0
:1027800001E0012002900298FEBD0000BC02002082
:10279000280000208C0100202000002038B500BF58
:1027A00006E059202149086016200860882008604A
:1027B0001E4800680128F4D100BFFEF72DFAFDF78E
:1027C000F5FE0020FDF7FCFE04460120FDF7F8FEB3
:1027D00024180220FDF7F4FE201815490860FDF7C3
:1027E000DBFEFDF74FFFFEF7D0FCFDF713FF1149AD
:1027F000087000BF00200D49086000BF00220D488E
:102800000092017810464B23DB01FFF78DFBFFF7A9
:10281000CBF809E0FFF7EEFBFEF7C8F9FDF784FF00
:1028200005480068FEF7DAFDF4E7000000010050FB
:10283000080000200400002000000020F8B5044635
:102840000D46164600200090FDF7A2FE002E03D193
:10285000FDF7A0FE0098F8BD2E480078012853D15E
:102860002D482C49C91C0860FF20096808705520B4
:102870002849C91C0968487005202649C91C0968EF
:10288000887000202349C91C0968C8702148C01CF1
:102890000068047100201F49C91C0968487106209E
:1028A0001C49C91D0880091F09681A4AD21D1288CF
:1028B000881832462946FDF749FC1648C01D008895
:1028C00080191449C91D088008460188001F006846
:1028D000FFF704F8074639120E4AD21D1088421C31
:1028E0000C4BDB1D1A800C4A11541A461088421CEE
:1028F0001A80094A17540120194608390870012125
:10290000002000F087F801E005200090FDF742FE6E
:102910000098A0E741000020BC04002001460029E7
:1029200004D0012904D0072906D103E0002005E0E6
:10293000022003E0062001E0042000BF00BF704732
:1029400010B502480068804710BD0000FC00002060
:1029500010B502480068804710BD0000F400002058
:1029600010B502480068804710BD0000F800002044
:1029700070B50646FEF74AF8174908600846006831
:10298000091D0968884208D3134800681249091DC7
:102990000968401A1049086007E00F48001D0068E8
:1029A0000D490968401A0C4908600B480068FDF79A
:1029B00035FC05460848203801682846FDF7EEFB3F
:1029C0000446FDF732FC04491839086008460068DF
:1029D000FEF7E0FB70BD000078010020002070478A
:1029E00070B50246FF23FF2408E01578521C6540AD
:1029F0000648405D584004460548435D08464E1E63
:102A0000B1B20028F1D11802204370BD7E2E000023
:102A10007E2F0000002806D00E4A526801231A4378
:102A20000C4B5A6005E00B4A526852085200094BA1
:102A30005A60002906D0074A526802231A43054B00
:102A40005A6005E0034A526802239A43014B5A60D8
:102A5000704700000000054000BF074800680121E2
:102A6000890788430449086000BF002003490870B3
:102A7000034908607047000020000140100000205A
:102A80001400002010B501200749087000200749F4
:102A900008600748FEF7E3F90920FDF7EFFE044858
:102AA000FEF760FA10BD00001000002014000020A6
:102AB000200001400146024800680870012070476C
:102AC00000001540F8B505460C4616461F4611484D
:102AD000FEF7D8F80022032109060F48FDF7CCFCC9
:102AE0000D48FDF73DFC21460C48FEF7EBFAFDF7DB
:102AF0004FFD0A4840680121084308494860022107
:102B00000D20FDF747FF0D20FDF7C2FEFDF742FD4A
:102B10000120F8BD11000004113D80270000154080
:102B20000020024908700249086070472501002012
:102B30002801002001200349087000200249086094
:102B400070470000250100202801002010B5044630
:102B50000A20604311490880114A0121C906114821
:102B6000FEF7C6F900BF0F48006801214907084376
:102B70000C49086000BF04210A20FDF70BFF0A2062
:102B8000FDF786FE00BF074800680121890708435A
:102B90000449086000BF012010BD0000380100207A
:102BA000204E000000001140002070470146002028
:102BB000064A1278002A07D0044A521E12780A7078
:102BC0000022024B1A700120704700000D00002007
:102BD0000020024908700120704700000D0000200D
:102BE00001460120024A1070501E017001207047FA
:102BF0000D0000200146024800680870012070475F
:102C000000000540F8B505460C4616461F46134819
:102C1000FEF738F80022032109061148FDF72CFCC5
:102C20000F48FDF79DFB21460E48FEF74BFAFDF7D6
:102C3000AFFC0C484068012108430A494860032161
:102C40000C20FDF72FFE00BF0C2101208840064913
:102C5000086000BFFDF79EFC0120F8BD10000004D5
:102C6000103D80270000054000E100E001460248D9
:102C700001600120704700000000054010B50446C7
:102C80000B4804800B4A0121C9060B48FEF730F9B6
:102C90000948FEF7E4F803210920FDF73FFE09206B
:102CA000FDF7ECFD0448FEF75DF9012010BD0000C2
:102CB00018000020204E00002000014038B50024FC
:102CC0006846FFF797FF1F480078002806D00128C4
:102CD0000AD002281BD0032830D102E0FFF7D2FE31
:102CE0002CE0FFF7CFFE29E00020164909310880CB
:102CF0006B461A780888411C124B09331980124917
:102D00000A5402200F490870FFF7BCFE16E00D4878
:102D100009300088FF280BDC6B461A780949093115
:102D20000888411C074B0933198007490A5402E0FF
:102D3000032004490870FFF7A5FE00BF00BF20462E
:102D400038BD000041000020BC04002010B5002464
:102D50000E480078002804D0022807D003280BD1A1
:102D600009E00020FFF73CFF044606E00120FFF7E2
:102D700037FF044601E000E000BF00BFFFF76CFE34
:102D8000012002490870204610BD000041000020CB
:102D900010B5002419480078002802D0012829D154
:102DA00004E000210120FFF735FE23E0134808303E
:102DB0000088002812D01149091D09680878FFF71A
:102DC00055FF0E48001D0068401C0C49091D086095
:102DD000081D0088401E091D08800AE00320FFF737
:102DE000FFFE044600210120FFF714FE00200349E6
:102DF000087000BF00BF204610BD0000400000204A
:102E0000F0B50346CE08F000081A87B201209040C2
:102E1000401E85B29C5D701C185C00020443204675
:102E2000384184B2204628400446E0B2F0BDFFB5E8
:102E300082B00093CD08EE008E1BB6B20196009BC7
:102E40001F46019EB740BEB200960127049EB740C0
:102E50007E1EB4B2EE008E1B2746B740BCB2425D68
:102E60006E1C865D360232431646A643009F3E43E3
:102E70003246425516126F1CC65506B0F0BD00C151
:102E8000814001C0804101C0804100C1814001C03A
:102E9000804100C1814000C1814001C0804101C02A
:102EA000804100C1814000C1814001C0804100C11A
:102EB000814001C0804101C0804100C1814001C00A
:102EC000804100C1814000C1814001C0804100C1FA
:102ED000814001C0804101C0804100C1814000C1EA
:102EE000814001C0804101C0804100C1814001C0DA
:102EF000804100C1814000C1814001C0804101C0CA
:102F0000804100C1814000C1814001C0804100C1B9
:102F1000814001C0804101C0804100C1814000C1A9
:102F2000814001C0804101C0804100C1814001C099
:102F3000804100C1814000C1814001C0804100C189
:102F4000814001C0804101C0804100C1814001C079
:102F5000804100C1814000C1814001C0804101C069
:102F6000804100C1814000C1814001C0804100C159
:102F7000814001C0804101C0804100C1814000C04A
:102F8000C101C30302C2C60607C705C5C404CC0CF1
:102F90000DCD0FCFCE0E0ACACB0BC90908C8D81861
:102FA00019D91BDBDA1A1EDEDF1FDD1D1CDC14D471
:102FB000D515D71716D6D21213D311D1D010F030A1
:102FC00031F133F3F23236F6F737F53534F43CFCB1
:102FD000FD3DFF3F3EFEFA3A3BFB39F9F83828E861
:102FE000E929EB2B2AEAEE2E2FEF2DEDEC2CE42431
:102FF00025E527E7E62622E2E323E12120E0A060A1
:1030000061A163A3A26266A6A767A56564A46CAC70
:10301000AD6DAF6F6EAEAA6A6BAB69A9A86878B8E0
:10302000B979BB7B7ABABE7E7FBF7DBDBC7CB474F0
:1030300075B577B7B67672B2B373B17170B05090A0
:1030400091519353529296565797559594549C5C30
:103050005D9D5F9F9E5E5A9A9B5B995958988848E0
:1030600049894B8B8A4A4E8E8F4F8D4D4C8C4484B0
:1030700085458747468682424383418180400000E0
:103080002110422063308440A550C660E77008815B
:1030900029914AA16BB18CC1ADD1CEE1EFF13112D2
:1030A000100273325222B5529442F772D6623993AB
:1030B00018837BB35AA3BDD39CC3FFF3DEE3622422
:1030C000433420040114E664C774A44485546AA5FB
:1030D0004BB528850995EEE5CFF5ACC58DD55336B2
:1030E000722611163006D776F6669556B4465BB74B
:1030F0007AA719973887DFF7FEE79DD7BCC7C44882
:10310000E5588668A7784008611802282338CCC99A
:10311000EDD98EE9AFF9488969990AA92BB9F55A11
:10312000D44AB77A966A711A500A333A122AFDDBEA
:10313000DCCBBFFB9EEB799B588B3BBB1AABA66CE1
:10314000877CE44CC55C222C033C600C411CAEED3A
:103150008FFDECCDCDDD2AAD0BBD688D499D977EF1
:10316000B66ED55EF44E133E322E511E700E9FFF8A
:10317000BEEFDDDFFCCF1BBF3AAF599F788F889140
:10318000A981CAB1EBA10CD12DC14EF16FE1801024
:10319000A100C230E3200450254046706760B98327
:1031A0009893FBA3DAB33DC31CD37FE35EF3B10274
:1031B0009012F322D2323542145277625672EAB537
:1031C000CBA5A89589856EF54FE52CD50DC5E234C4
:1031D000C324A01481046674476424540544DBA707
:1031E000FAB79987B8975FE77EF71DC73CD7D32614
:1031F000F2369106B01657667676154634564CD997
:103200006DC90EF92FE9C899E9898AB9ABA9445863
:10321000654806782768C018E1088238A3287DCB66
:103220005CDB3FEB1EFBF98BD89BBBAB9ABB754AB3
:10323000545A376A167AF10AD01AB32A923A2EFDF6
:103240000FED6CDD4DCDAABD8BADE89DC98D267C03
:10325000076C645C454CA23C832CE01CC10C1FEF46
:103260003EFF5DCF7CDF9BAFBABFD98FF89F176E53
:10327000367E554E745E932EB23ED10EF01E000087
:10328000001BB7000000000000000000000000006C
:103290000000000010270000000000000080510125
:1032A000001BB7000000000000000000008051017A
:1032B000001BB7000000000000000000008051016A
:1032C000001BB7000000000000000000008051015A
:1032D000001BB7000000000080F0FA021027000079
:1032E000000000000000000000000000008051010C
:1032F00010330000000000208C01000008030000D3
:10330000783300008C01002094090000CE180000E2
:10331000011CDA0102223C1B203D04138C011B20FE
:103320009C0401143202320423151932114B4D1D35
:103330001023D71B32031A4B08321023BD1E32064E
:103340001AE52032172B631C70211AD13832051A66
:103350007518320F1A25282954035E8F1A5E80F0E3
:10336000FA0232080245FF83DC431AE8F91AFFDE4D
:083370002908412A58D101137C
:04000005000000D522
:00000001FF
